:100000000C9471080C9499080C9499080C94990814
:100010000C9499080C9499080C9499080C949908DC
:100020000C9499080C9499080C9499080C949908CC
:100030000C9499080C9499080C9499080C949908BC
:100040000C943D1B0C9499080C940B1B0C94E51A12
:100050000C9499080C9499080C9499080C9499089C
:100060000C94871B0C9499080000000023002600C4
:10007000290000000000240027002A0000000000E2
:10008000250028002B0004040404040404040202D4
:100090000202020203030303030301020408102007
:1000A00040800102040810200102040810202C00E6
:1000B0002C002C002C002C002C002C000000000830
:1000C000000201000003040700000000000000001F
:1000D000120003030404030405090F00FD0CFC0CCB
:1000E000FD0000000000E9200500CC0A2A0A557C2A
:1000F000AB9494D124162B0C88453DB1DAE1201342
:10010000AB012C08522D0A4A44022D0724DC8A43F5
:10011000002E0622450A022F0FC4C4BA24512C24F3
:100120008A8544B13400300EC8C42C9A6554E46307
:10013000696223013109C5C5CCD8A1A63F320FC8D9
:10014000C42C9A6554244A873B1E0E023311C8C43E
:100150002C9A655494CE88E462696223013413C8F2
:10016000C4CC214D2293887491490E07A9580500EB
:100170003510C8C42C27B1B4668A8DC5A5898D04F5
:100180003612C8C42C9A6554968C2EA322B134B171
:100190009100370FC8C48C07A9582A968A55C58A7A
:1001A000003813C8C42C9A655494886434CBA8587A
:1001B0009AD848003912C8C42C9A6554249626A7A8
:1001C00089B834B191003A0882C60A3A8400000026
:1001D0000004FFFF00005F00030304040204050B9A
:1001E0000BFFFE08FE08FE016402CF040920050093
:1001F000E60421088223C5411213220833774544BF
:100200002500231077A155241889992221532418F9
:100210008901240FA59E556C92425B8A4852662143
:1002200000251287228E4C220949A2E168441489D4
:10023000CC240026108722CE4C2292C8661293440A
:10024000329A08270631F7C400280BA31A55441226
:10025000D129240A290DA31A4548149268894842D5
:10026000002A0733364524072B0A56A695506412F8
:100270008A002C0742DA0445022D06146E05012E71
:100280000622E204012F0C84225D522C140BC5625D
:1002900000300B85A2CD44C217C90400310783A3E7
:1002A0004D451F320A85A2CD444D495B01330D8572
:1002B000A2CD444D249451241300340E86A26550DF
:1002C000368A4842129B5002350C85A2C54D461C09
:1002D00051241300360D85A2CD4442A3485824135F
:1002E00000370B85A2454D4926922901380E85A27B
:1002F000CD4442914C242C920900390D85A2CD4465
:10030000C222A1512413003A0762E20491003B0883
:1003100082DA049122013C08546695444D013D0760
:1003200035AA45B5003E095466854C4509003F0C89
:1003300085A2CD444DA42687880040179ADE5E4DE5
:100340001A0A4922A224492C2409A58424B238ACD3
:1003500006410F8722D6702611494412C94146131F
:10036000420C86E2454544BA88982E00430E872207
:100370001649449C2A4644220A00440B86E2054959
:10038000A2C48B8404450985A2C54D76532B460A29
:1003900085A2C54D46916903470E87221649449CA4
:1003A0008A6A12916812480A86E28588E930E22456
:1003B000490782E2C483004A0A85A29DDE28920989
:1003C000004B0F87E28548A2441BD22422159900D6
:1003D0004C0885A2854CDF0A4D1089A286B466BB05
:1003E00058522813528814124E0E872286AC54A2FB
:1003F000442811529B004F0C8722D64CA2C64DA216
:100400003602500B86E24545C474112A02510D97FD
:100410001ED64CA2C625A28D0E08520B86E245457B
:10042000C474113109530C86E20D455464234928E4
:1004300000540986E28549A84F00550A86E285885E
:100440009F241400560F8722868C2651928824B24E
:10045000E1340657138AE286484412915434499491
:100460000E3191502402580E8722868C26511BCEC5
:10047000246A3401590D88628690281169A38AD5AF
:10048000005A0A86E28551A63653345B08A31A4502
:1004900045BF0C5C0C8422452C180BC682B1005D54
:1004A00008A31AC544BF145E0844728DA4240A5FD1
:1004B00006169A8501600722FE442800610B66A299
:1004C000CD2824A2E82411620B85A2854C469170A8
:1004D000B100630964624D65A41219640A85A29D86
:1004E0008A858B8400650C65A2CD447290492413E3
:1004F00000660A8521D5444492E904670C859A8DEB
:1005000064C24542934C00680A85A2854C4691F02E
:1005100022690782E284E8506A0AA3D98C50A217A4
:100520000A006B0D86A2855045429A91244A026CBE
:100530000782E2C483006D0E68624644178A8422F3
:10054000A148280A6E0965A245448517016F0A650E
:10055000A2CD44C2453201700B859A4544858B4536
:100560002603710A859A8D64C2454253720964223A
:1005700045A422D204730B65A2CD446548914C007A
:10058000740A84218D4842116913750965A2858416
:10059000179500760B65A285844592340B01771080
:1005A00067228624428950229A2422890400780CEA
:1005B00066E28548429351442401790C859A8584EA
:1005C0008B84241389007A0965A2454DA4AD007B74
:1005D0000BA45A9544A4221369137C07A1DBC461C0
:1005E000007D0CA45A854CA426116911017E0725B3
:1005F000AE8D160000000004FFFF00005F00030343
:1006000004050305060E1100FC0CFC0CFD01EB04B7
:100610002D05DD200500184B2109C20C4D1C2C694D
:1006200004220A458A51485824A100231BC908D333
:10063000498412A14474881C4212A14474881C424B
:1006400012A1442891012414E7FAD2052B0749840A
:100650001223728B5022074931062521CD085D49AE
:1006600083B4A048141449C2A43840148786E48097
:1006700010392212861463C4A808002616CA0A5923
:10068000518D22A1484A9E499A2AB2916C76888D52
:10069000062707428A495802280CF4DA4C49264AB0
:1006A000FA9B6824290EF4D84C88463291FE229990
:1006B00088002A0B55784DA5A48C26B1002B0D88F7
:1006C0000AD589D50E0799580D002C0952DA4850E1
:1006D0002212002D0724384B1C022E06220A491034
:1006E0002F0FC408CB25896221512C248AA5013003
:1006F0000FC80853D12CA3221F4B131B0900310A2A
:10070000C50A53C60E35FD01320FC80853D12CA3BC
:1007100022513ADCF170103312C80853D12CA3A235
:10072000744624174B131B09003413C808530E6971
:10073000129944A48B4C723848C52A003511C80858
:10074000533989A535536C2C2E4D6C24003612C8B4
:100750000853D12CA3B26474191589A5898D043767
:100760000FC808533C48C552B154AC2A560438133C
:10077000C80853D12CA3A24424A35946C5D2C446C9
:10078000023912C80853D12CA322B134394DC4A563
:10079000898D043A08820C4BD021043B0BB2DC4A11
:1007A000D021948804003C0D880A550B49A4E91C0B
:1007B00040260B3D0B681A553CC8910E07013E0DB3
:1007C000880A5588D901D311A318003F10C70AD54C
:1007D000540E329A543854954395004023EDEA6004
:1007E0005A8732392414AB906421594CA426528B79
:1007F00089944821519A482687CEE48022004119E5
:10080000CB0859CE21734059229D0C65B225A9E829
:100810002039D8017480004214C90A579C0E116116
:100820009578A01C22C22AF14039014317CA0AD97F
:10083000154FB389B40E9043E49039442A998D8EB4
:1008400025004415CA0A59180F21E1442A919659E6
:10085000AB12E1E4103202450EC80A553C90952FC8
:1008600017B1F2E120460DC80A553C90952F17B1FB
:10087000CE004717CA0AD9154FB389B40E904384E6
:10088000378A54321B1D621401480CCA0A59883930
:100890001F1EC67C164907C20A497C184A0CC70AA3
:1008A000D3EA571AED20A9004B19CB0A594827C2A1
:1008B000916C261A4AA665AB68289B0947D28978AD
:1008C000004C0BC80A5588F5CF8783004D19CB0A19
:1008D0005B4C5D6F87982516A1A85054489110690C
:1008E000441AD162024E15CA0A594C8D468A8C228E
:1008F000238948229A842621BA0E4F16CB0ADB554B
:100900006F4B52C9B40EA003AA13A96836BBD60018
:100910005014C90A579C0E116195F14039C90172F2
:10092000801C20075119DBFADA556F4B52C9B40EFF
:10093000A0036A2189A834A25DEFA010005219CA51
:100940000A591C420789542295082787D021249CE4
:1009500048255289B43A5312C90A57D52EB3AAD999
:100960005A07546B935B09005419CA08553C18E5A3
:100970001039440E9143E41039440E9143E41021A0
:1009800000550DCA0A5988F9E7E2E41033015619F7
:10099000CA085788C912A1482812CA444291502453
:1009A00025D30172881000571ECE085F08854421A8
:1009B0005145A62422299164925044482292A8428B
:1009C000B1502C94015814C90A57486B13998AB036
:1009D0003A9E162532955955005919CA0857888BE1
:1009E00013A14C241449C974801C2287C821728821
:1009F00010005A0FC80A553C48A7AAC3A9EAF470C8
:100A0000105B0BF4DA4C1C46FA4F87005C0DC408EF
:100A10004BC462B234599A2C035D0BF4D84C1C427F
:100A2000FA4F87015E0D785AD589A5349116215168
:100A3000005F0719D8521C04600833AC4D84640170
:100A40006111980AD3942E32E9C83292C824A7C9FA
:100A5000006211C80A5588B58C2EA32263E9309133
:100A60008C00630E980A53D12CA3B2F26862230162
:100A7000640FC80A556BB21C4645C6D2E4341165F2
:100A80000F980A55D12CC2C3C13C9AD84800660DB4
:100A9000C40A4D4926924344A42F006713D8CA5470
:100AA0004D24875191B134394DC4A5898D04680D09
:100AB000C80A5588B5500E34221F056909C20A4973
:100AC000900E07026A0B03CBCA284AF42F17006B5B
:100AD00014C80A5388B595269251CD34118926320F
:100AE000896C006C07C20A497C186D169C0A5D4827
:100AF0002893C32134A2C968329A8C26A3C9680AF4
:100B00006E0C980A554828071A918F026F0E980AA2
:100B100055D12CA32263696223017012D8CA5448AC
:100B200046975191B17498484662CD007110D8CA69
:100B3000544D24875191B134394DC43A720B950A02
:100B40004D480E2399DE00730E970AD3540E32637C
:100B5000B576905400740DB40ACD8824878848A7D0
:100B60009100750B980A5508F9ED40A108760F9889
:100B7000085308891291DE8854B10C0077159C083F
:100B80005BC864341591BE506487E0682A128B6498
:100B900000780F970A53C86812A5DAAC2451A3094C
:100BA0007915D8C85208891299442493C82432EA86
:100BB00054AC3895027A0C9708513CCE86C2D9ECD9
:100BC000707B0EF4DA4C4926225D64229D46027C3D
:100BD0000701CB483C087D0EF4DA4C88467A9388AE
:100BE000749988007E0A383AD5CC446A1300000014
:100BF0000004FFFF00006003040304040101050872
:100C00000700FF07FF07000180034204CD2007888B
:100C1000E1C71100210B88E19122A212139705224E
:100C20000B88E110D126241E3100231088E15023C7
:100C30002172222172222123210A240C88E1912A87
:100C400091A313A99205250E886194911091D24425
:100C500042461200260F88611992105AA16244CDB3
:100C6000842400270988E1119392470E280A88619D
:100C70009252A64E2900290A88619153A64A310052
:100C80002A0E88E11491213908A1119107012B0B3B
:100C900088E1151332129307022C0988E1472D26AB
:100CA00025042D0888E107B547032E0888E1472D64
:100CB000260B2F0888E1D267F10030118861199264
:100CC000109191908850232221340B310A88E191B0
:100CD0001AD3912500320E88E1289111131A92122D
:100CE00091B804330E88E128911193A193901129B2
:100CF00005340D88E119A291105172254509350D71
:100D00008861B81013B39390112905360E886119C4
:100D1000921233919190112905370B8861B8909107
:100D2000D24C3100381088E128919190112991918D
:100D300090112905390E88E12891919011319392F3
:100D4000A1053A0A88E11593871393053B0B88E1C7
:100D5000159387139312023C0888E1D29D96003DBB
:100D60000A88E107B187B107013E09886191D34A3A
:100D700063003F0B88E128919152262E0B4010888A
:100D8000E128919190A090A090A090A30541118896
:100D9000611992109191B890919091909104420DA7
:100DA0008861B011D1A446440B5300430D8861A162
:100DB000119110532722430A440D88612892901103
:100DC000D11722B500451088613891099108229207
:100DD000089289B804460F886138910991082292D7
:100DE00008922206470F8861A11191105332A26622
:100DF00022120048128861909190919091B8909140
:100E00009091909104490A8861A112D31529004A52
:100E10000B88E1A11253A21B5A004B10886118D114
:100E2000850C91848C88C48824004C0C8861A012A5
:100E3000D32644C525004D108861909158F1422277
:100E4000428D848C24004E12886190911891A0509C
:100E500041213221232123094F1188E128919190CA
:100E6000919091909190112905500D8861B011D108
:100E7000A4464C8A1800511288E1289191909190D3
:100E80009190911019299B0052108861B011D18462
:100E90004842464462441200530D8861A111919169
:100EA000532322430A540D88E13089900812D38AD3
:100EB0001400551288619091909190919091909129
:100EC000901129055612886190919091909190917E
:100ED000901191109A05571388619091909190917B
:100EE00090885011217122210A58128861909190A6
:100EF0001191101A92109191909104590C88E1105F
:100F0000D11B2A312952005A0F8861B890918891DB
:100F10005212A2E212005B0A88612112D319290041
:100F20005C09886190D3BB48005D09886121D323A7
:100F300052005E0C88E1091B9210919147035F08F3
:100F400088E1C7F620006009886191538F1800611D
:100F50000C88E107A1932951332109620D8861189A
:100F600013AB11D10B895100630D88E107299191D1
:100F70001093112905640C88E1199329D137139234
:100F800000650C88E107299191B8902B05660C88C3
:100F900061A11151552426450C670D88E107995030
:100FA000A24D99480D00680E88611853213321A283
:100FB0008B114900690A88E1911ED38A14006A0BDB
:100FC00088E1121753A21B12006B0F88611853A2FD
:100FD00042864842644412006C09886119D32B523E
:100FE000006D1188E1879810B990885011A12242B4
:100FF00012006E0B88E187909811D12F016F0E8837
:10100000E107299191909190112905700E88E1874F
:10101000909811D1A4468A0800710D88E107995073
:10102000A24D99140500720D88E1879098991011CE
:10103000932206730B88E107B190AB933005740CD3
:101040008861111332125321340A750B88E187101D
:10105000D16F262401760F88E187909190919011AD
:1010600091109A05771088E187909190885011210E
:101070007122210A780F88E187901191101A92103D
:10108000919104790F88E18790919091901131931B
:1010900030017A0C88E107310991521262097B0C08
:1010A00088611A12139A13939B047C0A88E111D366
:1010B0005C4C0D007D0C88E19813931B12131A06EB
:1010C0007E0A88E19850318F15007F0E88E10D1B54
:1010D000921091919091B80400000004FFFF00006D
:1010E000A61C11241FBECFEFD8E0DEBFCDBF26E087
:1010F000A2E6B3E001C01D92AC3CB207E1F713E0F9
:10110000A0E0B1E0E8E7FAE502C005900D92A23652
:10111000B107D9F718E0C1E7D8E004C02197FE0174
:101120000E94322BC037D107C9F70E94961D0C943C
:101130003A2D0C940000662329F06A3019F0862FAE
:1011400090E008958FEF9FEF0895CF92DF92EF9296
:10115000FF920F931F93CF93DF93EC01842F87703F
:10116000E1E0F0E0082E01C0EE0F0A94EAF73E2F0E
:101170007E0199E7E90EF11CD7019C9110E09230B5
:1011800018F41E2F913029F150E0487FE8ADF9ADF9
:10119000C880D980D60150969C91949F6001959FFC
:1011A000D00C11246C0D7D2D711DDF01A60FB71F12
:1011B000011115C08C91812B83278D932150D1F77C
:1011C000DF91CF911F910F91FF90EF90DF90CF9023
:1011D000089530E0D9CF110F330F222389F39C916A
:1011E000912B93279C938F5F877021508111F3CFB0
:1011F0009CADA90FB11DF7019081923028F4913078
:1012000009F031E011E0E9CF31E0E7CF80E0089567
:1012100080E008959B01DC011896ED91FC9141E07E
:1012200067E109940895AF92BF92CF92DF92EF9257
:10123000FF920F931F93CF93DF936C017B018B0180
:10124000040F151FEB015E01AE18BF08C017D107D0
:1012500059F06991D601ED91FC910190F081E02D5A
:10126000C6010995892B79F7C501DF91CF911F91AF
:101270000F91FF90EF90DF90CF90BF90AF900895C7
:10128000FC01538D448D252F30E0842F90E0821B8C
:10129000930B541710F0CF96089501970895FC0111
:1012A000918D828D981761F0A28DAE0FBF2FB11D69
:1012B0005D968C91928D9F5F9F73928F90E00895C1
:1012C0008FEF9FEF0895FC01918D828D981731F07B
:1012D000828DE80FF11D858D90E008958FEF9FEFCF
:1012E0000895FC01918D228D892F90E0805C9F4FA5
:1012F000821B91098F73992708958AE195E00E94D6
:10130000710921E0892B09F420E0822F089580E003
:1013100090E0892B29F00E947D0981110C94000036
:101320000895FC01A48DA80FB92FB11DA35ABF4F7A
:101330002C91848D90E001968F739927848FA689D4
:10134000B7892C93A089B1898C91837080648C9328
:10135000938D848D981306C00288F389E02D8081D7
:101360008F7D80830895EF92FF920F931F93CF9309
:10137000DF93EC0181E0888F9B8D8C8D98131AC0D0
:10138000E889F989808185FF15C09FB7F894EE89B7
:10139000FF896083E889F989808183708064808314
:1013A0009FBF81E090E0DF91CF911F910F91FF905F
:1013B000EF900895F62E0B8D10E00F5F1F4F0F7307
:1013C0001127E02E8C8D8E110CC00FB607FCFACFC2
:1013D000E889F989808185FFF5CFCE010E949109C6
:1013E000F1CFEB8DEC0FFD2FF11DE35AFF4FF08293
:1013F0009FB7F8940B8FEA89FB8980818062CFCFF9
:101400000F931F93CF93DF938C01D0E0C0E0F801DE
:10141000EC0FFD1F6491662341F08AE195E00E9484
:10142000B309892B11F02196F2CFCE01DF91CF9134
:101430001F910F910895CF93DF93EC01888D88233E
:10144000B9F0AA89BB89E889F9898C9185FD03C027
:10145000808186FD0DC00FB607FCF7CF8C9185FF0C
:10146000F2CF808185FFEDCFCE010E949109E9CFB7
:10147000DF91CF910895833081F028F4813099F085
:101480008230A9F008958730A9F08830C9F08430FF
:10149000B1F4809180008F7D03C0809180008F77B0
:1014A00080938000089584B58F7784BD089584B5B6
:1014B0008F7DFBCF8091B0008F778093B00008952F
:1014C0008091B0008F7DF9CF1F93CF93DF93282FAA
:1014D00030E0F901E454FF4F8491F901E656FF4FE3
:1014E000D491F901EA57FF4FC491CC23A9F0162FEC
:1014F00081110E943B0AEC2FF0E0EE0FFF1FE45831
:10150000FF4FA591B4918FB7F894EC91111108C0D9
:10151000D095DE23DC938FBFDF91CF911F9108958B
:10152000DE2BF8CFCF93DF9390E0FC01E656FF4F20
:1015300024918A579F4FFC0184918823D1F090E039
:10154000880F991FFC01EE58FF4FA591B491FC0143
:10155000E458FF4FC591D491623071F49FB7F8946D
:101560003C91822F809583238C93E8812E2B2883B6
:101570009FBFDF91CF9108958FB7F894EC912E2BF8
:101580002C938FBFF6CF8E50806480937C00809127
:101590007A00806480937A0080917A0086FDFCCF87
:1015A000809178009091790008953FB7F8948091E8
:1015B000480490914904A0914A04B0914B0426B587
:1015C000A89B05C02F3F19F00196A11DB11D3FBF7B
:1015D000BA2FA92F982F8827BC01CD01620F711D4A
:1015E000811D911D43E0660F771F881F991F4A9543
:1015F000D1F708958F929F92AF92BF92CF92DF92D0
:10160000EF92FF926B017C010E94D50A4B015C01B5
:10161000C114D104E104F104B9F00E94D50A68199B
:1016200079098A099B09683E73408105910580F319
:1016300021E0C21AD108E108F10888EE880E83E0A3
:10164000981EA11CB11CE4CFFF90EF90DF90CF90CB
:10165000BF90AF909F908F9008952FB7F8946091AE
:1016600044047091450480914604909147042FBF33
:1016700008952091F703260F3327331F21323105B8
:10168000ECF420911D04FC0190E080E0243069F02E
:1016900082E00895A091F7032191AC014B525C4F79
:1016A000A40FB52FB11D2C930196861798F3809146
:1016B000F703680F6093F70380E0089581E00895D1
:1016C00010921D0481E080931F0410921E0461E0BB
:1016D00082E10E94640A61E083E10E94640AE9EB0E
:1016E000F0E080818E7F808380818D7F808380E2A7
:1016F0008093B80085E48093BC000895CF93DF9376
:1017000091E09093D4038823B9F0C091B800D091B0
:10171000BA008091BC008A7B8093BC0060E082E1CB
:101720000E94640A60E083E10E94640A0E94600BE8
:10173000D093BA00C093B800DF91CF910895089577
:1017400008950895E091CC038091CB03E81730F41D
:10175000F0E0E555FC4F808190E008958FEF9FEF1A
:1017600008959091CC038091CB032FEF3FEF981712
:1017700048F4E92FF0E0E555FC4F208130E09F5F11
:101780009093CC03C90108958091CB039091CC0331
:10179000891B990B0895CF92DF92EF92FF920F93DE
:1017A0001F93CF93DF937C01CB018A012091AA0381
:1017B000222389F0EB016B01C40ED51ECC15DD058B
:1017C00069F06991D701ED91FC910190F081E02DD4
:1017D000C7010995F3CF642F0E94390BC801DF912F
:1017E000CF911F910F91FF90EF90DF90CF900895D0
:1017F000CF93DF931F92CDB7DEB769832091AA0301
:101800002223F9F02091CD03203258F021E030E07E
:10181000FC013383228390E080E00F90DF91CF9131
:1018200008958091CE03E82FF0E0E657FC4F9981B0
:1018300090838F5F8093CE038093CD0381E090E00F
:10184000ECCF61E0CE0101960E94390BF7CFDC01AD
:101850001A96ED91FC9130E020E00994462FDC01CE
:101860001496ED91FC9130E020E06BE00994DC01EE
:101870001696ED91FC9130E020E040E069E109949A
:10188000DC011696ED91FC9130E020E040E068E14B
:1018900009949A01DC011696ED91FC91462F67E1BF
:1018A0000994EF92FF920F931F93CF93DF931F92B0
:1018B000CDB7DEB77C018B01D8016C91673129F17E
:1018C00050F46531A0F40F90DF91CF911F910F91EB
:1018D000FF90EF9008956A3118F16E3FA1F7F8017B
:1018E0004181498369E2C7010E94270C0BC0F801BE
:1018F00041814983D7011696ED91FC9130E020E0BB
:10190000C70109950E5F1F4FD7CFF80181818983E9
:10191000AE014F5F5F4F61E0C7010E94490CF2CFFB
:101920000F5F1F4FD7011696ED91FC9130E020E03C
:1019300040E0C7010995C0CF462FDC011696ED9116
:10194000FC9130E020E066E10994462FDC01169618
:10195000ED91FC9130E020E065E10994EF92FF9277
:101960000F931F93CF93DF93EC01042F79016D3018
:1019700009F446C050F46B30C9F1693009F49FC0D6
:101980006A3009F465C080E046C06E3009F452C088
:101990006F3099F70E94400CF7011381110F110F5E
:1019A000110F6C89160F60E4CE010E94A50C612F07
:1019B00062956F706061CE010E94A50C612F6F70FF
:1019C000CE010E949C0CF7016481606BCE010E94E5
:1019D0009C0CF701408151816281660F660F660F92
:1019E000CE010E94490C0150A1F72EC065E371E0C1
:1019F000442311F060E371E0CE010E94510C0AC053
:101A0000411110C069E271E00E94510CE881F98136
:101A100082898C8B81E0DF91CF911F910F91FF9094
:101A2000EF90089562E271E00E94510CE881F98123
:101A30008389EFCF0E94400C61E8CE010E94A50C83
:101A4000602FCE010E949C0CCE010E94370CE2CF89
:101A5000EA85FB8530E020E040E068E2CE010995B0
:101A6000EE81FF8130E020E040E064E1CE010995A5
:101A700041E06BE4CE010E94270CE881F9814481AA
:101A800069E2CE010E94270C40E06BE4CE010E9487
:101A9000270CE881F981448169E2CE010E94270C7C
:101AA00041E06BE4CE010E94270CE881F981458179
:101AB00069E2CE010E94270C6AE371E09DCF8FE6B8
:101AC00091E0998388831C8AA5CFDC011896ED915B
:101AD000FC9130E020E040E069E10994DC011896D7
:101AE000ED91FC9130E020E040E068E10994CF9373
:101AF000DF931F92CDB7DEB76983BE016F5F7F4F63
:101B00000E940A090F90DF91CF910895EF92FF9202
:101B10001F93CF93DF93EC01162F7A010E946E0D75
:101B200060E4CE010E94770DE885F9859701412F89
:101B300067E1CE010995CE01DF91CF911F91FF9012
:101B4000EF900C94650DEF92FF921F93CF93DF936C
:101B5000EC01142F7901663181F138F4643109F414
:101B60004BC0653179F080E022C06831C9F150F195
:101B70006931C9F780918903882391F1CE010E94D0
:101B8000650D2EC080918903882319F0CE010E9433
:101B9000650DCE010E946E0D60E0CE010E94770DB2
:101BA000612FCE010E94770D81E080938903DF9140
:101BB000CF911F91FF90EF900895642F0E94770DB1
:101BC00081E0F5CF80918903882319F0CE010E942E
:101BD000650DA701193138F4612FCE010E94860DE1
:101BE00010928903EDCF68E1CE010E94860D185155
:101BF00088E1E80EF11CEDCF8E898F3F11F488E764
:101C00008E8BE885F9859701412F64E1CE01DF9144
:101C1000CF911F91FF90EF9009940F93DC01DE9616
:101C20003C91DE97431BD496ED91FC9109950F9161
:101C30000895CF93DF93FC01A081B18182AD982FED
:101C4000990F990F990F95AF50969C91509790329C
:101C500008F09FE1990F990F990F94AF23AD922F40
:101C6000990F990F990F96AF51963C915197682F04
:101C7000620F7727771F3617170614F4832F821BFE
:101C800097AFEF01C05CDF4F880F880F880F890F77
:101C90008883219680EF888354968D919C915597E7
:101CA000813F910508F48883EE5BFF4F56968C9137
:101CB0008083DF91CF9108950F93FC01EB5BFF4F81
:101CC000308131965081451730F4301738F00417C1
:101CD00028F080E013C03017D0F3FBCFFC01ED5BA0
:101CE000FF4F30818C5B9F4FFC018081681740F46F
:101CF00081E0321718F081E0261758F70F91089508
:101D00003217C8F3E6CF2F923F924F925F926F92B5
:101D10007F928F929F92AF92BF92CF92DF92EF927B
:101D2000FF920F931F93CF93DF93EC014C0183E459
:101D3000880E911CF4011082329720805E01F4E439
:101D4000AF0EB11CF50120823FAC6E01F5E4CF0E61
:101D5000D11CF6013082359740807E01F6E4EF0E0B
:101D6000F11CF701408234961081329760803196E1
:101D7000708032975080012F262D472D652DCE0182
:101D80000E945C0ECD58DF4F811114C01882DF9184
:101D9000CF911F910F91FF90EF90DF90CF90BF9068
:101DA000AF909F908F907F906F905F904F903F90FB
:101DB0002F90089581E08883552011F0F40150821E
:101DC000621410F4F5016082371410F4F601708289
:101DD0001415E8F6F7011083DACF0F93DC01802F9A
:101DE000FD01ED58FF4F90819923E9F12223D9F1AC
:101DF000223020F0023079F56F5F621B082F0170EE
:101E0000FD0180FD32C0EB5BFF4F8081481758F128
:101E100031968081481738F53297908131978081CB
:101E2000260F2617F0F46917D8F42FEF290F821721
:101E3000D0F4681708F4682F291708F4922F961B1E
:101E4000D696ED91FC91D7970480F581E02D292F4E
:101E5000CD01099508C0033089F64F5F421BCECFF4
:101E6000682F691720F30F910895ED5BFF4F808174
:101E70006817C8F3319680816817A8F73296908169
:101E800031978081240F241778F4491760F42FEFDD
:101E9000290F821740F7481708F4482F291708F42C
:101EA000922F941BCDCF482F4917E8F6F2CF21305F
:101EB00039F020F0223031F0840F0895860F089514
:101EC000841B0895861B0895213039F020F02230BC
:101ED00031F0861B0895840F0895860F0895841BA2
:101EE00008955F926F927F928F929F92AF92BF926E
:101EF000CF92DF92EF92FF920F931F93CF93DF93D6
:101F00005C01162F642EEC01C15BDF4FDC80ED809D
:101F10004C0189E7880E911CFE80FD18C12EF11638
:101F200008F4CF2C5B800C85202F4E2D6D2D8A81DF
:101F30000E94570F782E202F4E2D6D2D852D0E943B
:101F4000640F482F662071F08A85F40180832C2D60
:101F5000672DC5010E94ED0E1F1548F01F19E3946F
:101F6000D12CDACF89858111F7CF8B85EECF1D0D6E
:101F70001C83ED82DF91CF911F910F91FF90EF9025
:101F8000DF90CF90BF90AF909F908F907F906F9099
:101F90005F900895DC0118964C911897ED91FC9193
:101FA0001197249130E0042E02C0359527950A94AC
:101FB000E2F7842F860F883068F031961196FC93F3
:101FC000EE93E49198E0941B01C0EE0F9A95EAF726
:101FD0002E2B885018968C938FEF9FEF01C0880F9F
:101FE0006A95EAF78095822308950F931F93CF9304
:101FF000DF938C01EC01C15BDF4F79836883188626
:10200000FC01E05AFF4F6081CE010E94CA0F8E830F
:10201000F801EF59FF4F6081CE010E94CA0F8F83F4
:10202000F801E758FF4F90819A8781E0911180E095
:102030008B87DF91CF911F910F910895CF93C62F7A
:102040000E94CA0FC15021E030E001C0220FCA95A2
:10205000EAF7821BCF910895FC01E60FF11D8491F0
:1020600090E0982F88273196E4918E0F911D089566
:10207000CF93DF932091920630919306281739076A
:1020800009F490C0EC019093930680939206FC01B2
:1020900084918093A3063196E491E093A406FE0117
:1020A0003296E491E093A506FE013396E491E09325
:1020B000A606FE013496E491E093A706FE0135964C
:1020C000E491E093A806FE013696E491E093A90618
:1020D000FE013796E491E093AA06FE013896E4915A
:1020E000E093AB06FE013996E491E093AC06FE0165
:1020F0003A96E491E093AD06FE013B96E491E093BD
:10210000AE06FE013C96E491E093AF06FE013D96DB
:10211000E491E093B006FE013E96E491E093B106AF
:10212000FE013F96E491E093B206FE017096E491C1
:10213000E093B30661E1CE010E942C109093B506A6
:102140008093B40663E1CE010E942C109093B706F1
:102150008093B60665E1CE010E942C109093B906DB
:102160008093B8068091920690919306892BD1F0C6
:102170008091B0068093BC064091B1064093BD06A5
:102180009091BB06992371F0913079F49091B20649
:10219000891714F49093BC068091B306841714F445
:1021A0008093BD06DF91CF9108953091AD062091C7
:1021B000AF06082E000C990B622F022E000C770B35
:1021C000630F711D37FD7A95861797071CF4320F40
:1021D0003093BC06241734F72093BD06E3CFEF926B
:1021E000FF920F931F93CF93DF93FC01E55BFF4FAB
:1021F00020813181295E3F4F6F3F710509F048F51D
:1022000061367105D8F081599F4FFC018081918121
:10221000280F391FC9010196FC014491442309F498
:1022200047C0F90144914617170671F40196DF91F2
:10223000CF911F910F91FF90EF9008956134710538
:1022400048F383599F4FE1CFFC018491280F311D42
:10225000E1CF8B01FC01EF58FF4FC081D181C20F4C
:10226000D31F7E0160E0C7010E942C10C80FD91F48
:1022700062E0C7010E942C10F4E0EF0EF11C801701
:10228000910780F3FE01849190E0982F8827319682
:10229000E4918E2B009761F00817190719F4CE010D
:1022A0000396C5CFFE013296E491CE0FD11DEACF41
:1022B00090E080E0BCCF0F931F93CF93DF931092F9
:1022C0009C0610925F068C01D0E0C0E0F80161919D
:1022D0008F01E0914906F0914A0687E496E009955E
:1022E0008F3F980749F18E3F2FEF920779F3BC019A
:1022F00087E496E00E94EF100097E1F0BC0187E4CC
:1023000096E00E94F50F6091A90686E996E00E948A
:102310001E108093BE066091AA0686E996E00E9490
:102320001E106091AB0686E996E00E941E10D82F21
:10233000C80FCCCF80E0FBCF80919C06882329F08A
:102340009091BE06890FC80FCD1B8C2FDF91CF91C6
:102350001F910F9108952BE938E030934A0620939E
:1023600049060C945B11CF93DF93EC016BAFEEA9A0
:10237000FFA90190F081E02D0995EEA9FFA9028047
:10238000F381E02DCE01DF91CF910994AF92BF92FE
:10239000CF92DF92EF92FF920F931F93CF93DF9331
:1023A00000D000D01F92CDB7DEB78C01DC01DA96E9
:1023B000AC90DA97DB96EC90DB97ED91FC91B188CD
:1023C000FE2CD12CC12CD801ED91FC911197808964
:1023D000D8962D913C911C82FD828B83B8E08B9F17
:1023E000C00111248C9DA0018D9D500D9C9D500D10
:1023F0001124240F351F3A832983D8011496ED91B7
:10240000FC919E012F5F3F4F41E06FE0C8010995AD
:10241000F3948F2D8E198A1528F4BFEFCB1ADB0A9F
:10242000FB1488F20F900F900F900F900F90DF9198
:10243000CF911F910F91FF90EF90DF90CF90BF90C1
:10244000AF900895CF92DF92EF92FF920F931F9378
:10245000CF93DF93EC01962F683109F44BC0B9019B
:10246000993130F49431C9F0973189F080E006C099
:10247000993109F461C09032C9F781E0DF91CF91C1
:102480001F910F91FF90EF90DF90CF90089550E053
:1024900087EB95E00E94CB0BF0CF8C859D85AE85B8
:1024A000BF85892B8A2B8B2B71F4E881F981A58557
:1024B000B0E020EA36E841E050E00E9488296C87CD
:1024C0007D878E879F871092CC031092CB0310924A
:1024D000CE031092CD030E94600B8FE99BE0909396
:1024E000F6038093F50380EA9BE09093FA038093D0
:1024F000F903C3CF2C853D854E855F8560E072E191
:102500008AE790E00E94F12A2051310941095109DE
:1025100056954795379527952093B8008E8990E07A
:102520009595879591E09093AA03809388031092E4
:10253000CE031092CD03A1CFD091CD03D13208F0BC
:1025400093C0C09188030E94D50A6B017C018091E1
:102550001D04811164C082E080931D0481E080939A
:102560001F048FEF80931C0410924104D093400409
:10257000AAE8B3E0E0E2F4E080E0D8137CC0109277
:10258000420480914204CC0FC82BC0934204809136
:102590001E04813009F073C010921E040E94D50AF7
:1025A0006B017C01809142048093BB008091D00339
:1025B0009091D103A091D203B091D303892B8A2BA0
:1025C0008B2B99F00E94D50A0091D0031091D10372
:1025D0002091D2033091D3036C197D098E099F0994
:1025E0000617170728073907D8F18091BC0083FD2B
:1025F000D9CF85EC8093BC000E94D50A6B017C0189
:1026000080911D048230E9F180911C048F3F61F1BB
:1026100080911C04803241F180911C0425C080917E
:10262000D0039091D103A091D203B091D303892B11
:102630008A2B8B2B09F48BCF0E94D50A0091D003F3
:102640001091D1032091D2033091D3036C197D09ED
:102650008E099F09061717072807390708F077CF53
:102660008091CF030E947E0B1092CE031092CD0377
:102670001092AA0302CF9D9191938F5F7ECF85EE3A
:10268000B9CF8091D0039091D103A091D203B091A2
:10269000D303892B8A2B8B2B09F4B2CF0E94D50A46
:1026A0000091D0031091D1032091D2033091D30334
:1026B0006C197D098E099F09061717072807390726
:1026C00008F09ECFCDCF0F931F93CF93DF93EC01F4
:1026D000862F642F8C3208F03AC08A3208F060C02E
:1026E000883209F44BC0893209F460C0803408F4A0
:1026F0006EC0982F9F73FE01E90FF11D868D8F3FED
:1027000009F44EC0903108F436C0282F30E0F901AA
:10271000E454FF4F8491F901E656FF4F0491F9010B
:10272000EA57FF4F1491112379F081110E943B0A5F
:10273000E12FF0E0EE0FFF1FE859FF4FA591B49194
:10274000EC910E2381E009F480E0898F29C08D325D
:1027500099F108F4CBCF94EB980F923008F0C6CFE4
:102760008F73C80FD11D8E8D41112DC061E00E9465
:10277000920A60E08E8D0E94640A12C08E01025E91
:102780001F4FD0E0F80181918F018F3F31F061E060
:10279000D03108F062E00E94920ADF5FD63191F7F3
:1027A00081E0DF91CF911F910F91089570E090E04B
:1027B00080E00E94FA0AF4CF433090F786E090E080
:1027C0000197F1F7EDCF62E00E94920AE9CF80E035
:1027D000E8CFCF92DF92EF92FF920F931F93CF93A8
:1027E000DF936C01EB017B01E40EF51E10E000E0CD
:1027F000CE15DF0561F06991D601ED91FC91019054
:10280000F081E02DC6010995080F191FF1CFC8010D
:10281000DF91CF911F910F91FF90EF90DF90CF90BC
:1028200008952F923F924F925F926F927F928F9274
:102830009F92AF92BF92CF92DF92EF92FF920F934F
:102840001F93CF93DF9300D000D0CDB7DEB79C832A
:102850008B836C0124E0C20ED11CFC01E158FF4FB8
:102860000190F081E02DC60109958C010E3F8FEF9C
:10287000180708F0FEC0AB80BC8092E8A90EB11C1E
:10288000F501F0808B809C80F1E88F0E911CF401A3
:10289000E0806B807C80FFE56F0E711CF30180810E
:1028A000813009F477C008F46AC0823009F47DC031
:1028B000833009F485C0EB81FC81EB5AFF4FE08245
:1028C000EB81FC81EA5AFF4FF082B801C6010E94F9
:1028D000EF10009709F400C1EB80FC80F3E5EF0EE8
:1028E000F11CBC01C6010E94F50FEB81FC81E65A88
:1028F000FF4F5080EB81FC81EA59FF4F6081C70197
:102900000E941E10282EEB81FC81E959FF4F608147
:10291000C7010E941E10382EEB81FC81E859FF4F41
:102920006081C7010E941E108983F701068110167D
:102930000CF092C04484350C3194242D432D622D2B
:1029400082810E94570F182FF7018283242D432D77
:10295000622D83810E94640FF7018383F1E04F169B
:1029600009F4A0C04F16B8F122E0421609F4A0C045
:1029700093E0491609F4A7C0082F212F30C0EB813E
:10298000FC81EF5AFF4F0190F081E02DC6010995BF
:10299000F80E91CFEB81FC81EF5AFF4F0190F0814F
:1029A000E02DC6010995E81A86CFEB81FC81EF5A2C
:1029B000FF4F0190F081E02DC6010995F81A7BCFF9
:1029C000EB81FC81EF5AFF4F0190F081E02DC601B1
:1029D0000995E80E70CF202F210F052D080F482FE5
:1029E000612FC6010E945C0E8823B1F1F7011482A9
:1029F00015822B803C80F2E62F0E311C0B811C814E
:102A00000D591F4FF1016081C7010E94CA0F8A83CF
:102A1000F8016081C7010E94CA0F482E40E06A8118
:102A2000C6010E94710F41E0642DC6010E94710F22
:102A300061E0C7010E94CA0F8111F0CFF7018581C3
:102A4000851504F38B819C8183589F4F9C838B83D6
:102A50008285EB81FC8180838981F30190819130B3
:102A600009F441C0D8F1923009F43FC0933009F421
:102A700041C081E090E00F900F900F900F90DF9198
:102A8000CF911F910F91FF90EF90DF90CF90BF906B
:102A9000AF909F908F907F906F905F904F903F90FE
:102AA0002F900895451821E0210F080F140D97CF9E
:102AB00091E0392F301B21E0210F951901E0080F1B
:102AC000890F130F8CCF252D210F982F901B01E01C
:102AD000080F81E0890F83CF80E0BFCFF4019081A0
:102AE000890F8083C6CFF501FACFF4019081981B3E
:102AF000892FF7CFF501FACF90E080E0089561E0EB
:102B00008AE00E94920AE6ECF0E0E491E33039F1C9
:102B100040F4E130C1F0E230E1F060E08AE00C9492
:102B2000640AE73041F1E83079F1E430B1F780919F
:102B3000800080628093800086E690E090938B0016
:102B400080938A00089584B5806884BD86E687BD39
:102B5000089584B5806284BD86E688BD089580911D
:102B6000800080688093800086E690E090938900E2
:102B70008093880008958091B00080688093B000B1
:102B800086E68093B30008958091B00080628093C0
:102B9000B00086E68093B4000895843029F180F473
:102BA0008230C1F060E0833001F160E089E00E9492
:102BB000640A80914E0461E0813099F40C947F1591
:102BC000853051F0863089F761E085E00E94640A23
:102BD00060E00FC061E0EACF61E089E00E94640A32
:102BE00060E08AE00C94640A61E085E00E94640A77
:102BF00061E086E0F7CF85E00E94CD1586E00E9477
:102C0000CD1581E080930B0110924E048093060154
:102C10000895EF92FF920F931F93CF93DF937B0161
:102C2000EA01415051094230510590F54091FC04B0
:102C30005091FD04841B950B40918703411111C0F5
:102C4000AC0197FF04C044275527481B590B241794
:102C500035070CF471C023E02093040121E0209398
:102C6000870320910401223099F49C0197FF04C04E
:102C700022273327281B390B40910F0142171306D7
:102C80000CF45CC085E00E94CD1583E080930401C4
:102C9000CE018D7F019709F08EC08091FA0490914A
:102CA000FB04E81AF90A80918603811111C0C7015B
:102CB000F7FE04C0882799278E199F09081719075E
:102CC0000CF444C083E08093050181E08093860387
:102CD00080910501823009F06EC0C701F7FE04C083
:102CE000882799278E199F0920910D012817190609
:102CF0007CF186E00E94CD1583E080930501C2300F
:102D0000D10581F1239709F46AC0809104018330D1
:102D100009F05AC080910501833009F055C085E063
:102D200080930B0181E08093040180930501109250
:102D300087031092860348C022E08ECF97FF04C01D
:102D400082E00E94CD15A4CF81E0FBCF82E0BBCF13
:102D500084E0F7FE83E00E94CD15C130D105A9F2D1
:102D6000229791F580910401833071F585E080937D
:102D70000B0181E0809304011092870380914E043F
:102D8000813011F58091090190910A01019690938B
:102D90000A0180930901809106018F5F80930601EB
:102DA00096E090930B011092E404853069F481E081
:102DB0008093060109C0C230D105A1F2C330D1050C
:102DC00051F0219709F4A1CFDF91CF911F910F917D
:102DD000FF90EF900895809105018330A9F785E079
:102DE00080930B0181E0809305011092860380910E
:102DF0004E04813049F780910701909108010196B6
:102E00009093080180930701C6CF20911805309157
:102E10001905232B39F421E0FC018081882361F01E
:102E200020E00AC0BC0180911405909115050E9414
:102E30002A2D21E0892BA1F7822F0895FB01019013
:102E40000020E9F73197AF01461B570BDC01ED91EC
:102E5000FC910280F381E02D09948F929F92AF92B2
:102E6000BF92EF92FF920F931F93CF93DF93CDB753
:102E7000DEB7A1970FB6F894DEBF0FBECDBF7C01C1
:102E8000FA01CB0119A2223008F42AE08E010F5D6D
:102E90001F4F822E912CB12CA12CBF01A5019401B2
:102EA0000E94F12AF901CA016A300CF5605DD8016F
:102EB0006E938D01232B242B252B79F790E080E056
:102EC000109721F0BD01C7010E941E17A1960FB6F1
:102ED000F894DEBF0FBECDBFDF91CF911F910F9150
:102EE000FF90EF90BF90AF909F908F900895695C96
:102EF000DECFCF92DF92EF92FF920F931F93CF938B
:102F0000DF936B01770FEE08FF08F7FE1FC0EC019F
:102F1000E881F9810190F081E02D6DE209958C0145
:102F200044275527BA014C195D096E097F092AE02B
:102F3000CE010E942D17800F911FDF91CF911F911D
:102F40000F91FF90EF90DF90CF9008952AE0B701A6
:102F5000A601DF91CF911F910F91FF90EF90DF902D
:102F6000CF900C942D174F925F926F927F928F9219
:102F70009F92AF92BF92CF92DF92EF92FF920F9308
:102F80001F93CF936B017C01742EAC019B010E94B7
:102F9000EC2A63ED71E0811126C046015701E894E7
:102FA000B7F82FEF3FEF4FE75FE7C501B4010E948D
:102FB000EC2A81110CC02FEF3FEF4FE75FE7C5010F
:102FC000B4010E944E2867ED71E0181664F02FEFEF
:102FD0003FEF4FE75FE4C701B6010E94E72A1816EA
:102FE000ACF46BED71E08AE195E0CF911F910F9108
:102FF000FF90EF90DF90CF90BF90AF909F908F9019
:103000007F906F905F904F900C941E172FEF3FEFC3
:103010004FE75FECC701B6010E944E2887FDE1CF64
:1030200020E030E0A901C701B6010E944E2810E05F
:1030300000E087FF0AC06DE28AE195E00E94B309D3
:103040008C01F7FAF094F7F8F094C0E060E070E0DB
:1030500080E09FE37C1641F020E030E040E251E464
:103060000E94462ACF5FF6CFA70196010E94DA2977
:103070002B013C010E94B82A4B015C012AE0BC01F3
:10308000A4018AE195E00E942D177C01E00EF11E5B
:10309000CC23D1F1C501B4010E9453289B01AC019E
:1030A000C301B2010E94D9294B015C016EE28AE1A1
:1030B00095E00E94B309E80EF91EC15028F120E006
:1030C00030E040E251E4C501B4010E94B4282B0174
:1030D0003C010E94B82A4B01B12CA12C2AE0B50179
:1030E000A4018AE195E00E942D17E80EF91EC501A2
:1030F000B4010E9453289B01AC01C301B2010E949C
:10310000D9294B015C01D9CFC701CF911F910F91F4
:10311000FF90EF90DF90CF90BF90AF909F908F90F7
:103120007F906F905F904F900895009729F0BC01B9
:1031300083E496E00C941E1790E080E008950F93CE
:103140001F93CF93DF93EC0186EF9BE00E94381032
:1031500081E090E020910D0530910E05253031057C
:1031600014F490E080E0880F991FFC01E25EFE4FAE
:1031700000811181C8010E94AB1190E0959587955F
:10318000919581959109805C9F4F8093C40689E059
:103190008093C506C8010E9495188CEF95E00E94A7
:1031A0003810CE010E94AB1190E0959587959195CE
:1031B00081959109805C9F4F8093C40686E280933D
:1031C000C506CE01DF91CF911F910F910C949518F8
:1031D000EF92FF920F931F93CF93DF93EC017B014C
:1031E000198218821B821A821D821C82FB010190A7
:1031F0000020E9F731978F01061B170BB8016F5FAD
:103200007F4F90E080E00E945D2C0097B9F0998399
:1032100088831B830A832C813D81232B11F4FC01BD
:1032200010821D830C83B70188819981DF91CF9132
:103230001F910F91FF90EF900C94332D888199810D
:10324000009711F00E94D42B198218821D821C82D3
:103250001B821A82DF91CF911F910F91FF90EF9007
:10326000089585ED8093BC008091D0039091D103A7
:10327000A091D203B091D3030796A11DB11D23E005
:10328000B695A795979587952A95D1F72091BC007B
:1032900024FD03C010921D0408954091D003509165
:1032A000D1036091D2037091D303452B462B472B5A
:1032B00069F30097A105B10541F02AE12A95F1F7DC
:1032C00000C00197A109B109E1CF8091CF030C940F
:1032D0007E0BFC01A081B18150962C9182AD38E02B
:1032E000839FC0011124289FA001299F500D112404
:1032F00070E060E080AD91AD0C94232D1F93CF93CF
:10330000DF93EC010E94C6111BAD8AAD180FE88156
:10331000F9818189181768F0EC81FD8130E020E0A7
:1033200040E060E1CE01099580E0DF91CF911F91EF
:103330000895FE01E658FF4F8081882319F0CE01E1
:103340000E946919612FCE010E94B31181E0EDCF77
:10335000CF93DF93EC01FC01E658FF4F8081882377
:1033600019F0CE010E94691960E0CE01DF91CF9182
:103370000C94B311CF93DF9387E496E00E94A819D1
:10338000D9E0C6E286EF9BE00E9438108FED91E015
:103390000E94AB1190E09595879591958195910943
:1033A000805C9F4F8093C406D093C5068FED91E05B
:1033B0000E94951886ED91E00E94381088EE91E009
:1033C0000E94AB1190E09595879591958195910913
:1033D000805C9F4F8093C406C093C50688EE91E041
:1033E0000E94951887E496E00E947E198111CACF49
:1033F00060ED77E080E090E0DF91CF910C94FA0AE5
:10340000CF93DF9387E496E00E94A819D9E0C6E243
:1034100086EF9BE00E9438108FED91E00E94AB1187
:1034200090E095958795919581959109805C9F4F46
:103430008093C406D093C5068FED91E00E94951845
:1034400086ED91E00E94381084EF91E00E94AB116C
:1034500090E095958795919581959109805C9F4F16
:103460008093C406C093C50684EF91E00E9495182E
:1034700087E496E00E947E198111CACF60ED77E063
:1034800080E090E0DF91CF910C94FA0ACF93DF9324
:1034900087E496E00E94A819D9E0C6E286EF9BE097
:1034A0000E9438108FED91E00E94AB1190E095954D
:1034B0008795919581959109805C9F4F8093C40673
:1034C000D093C5068FED91E00E94951886ED91E0AE
:1034D0000E9438108FEF91E00E94AB1190E095951B
:1034E0008795919581959109805C9F4F8093C40643
:1034F000C093C5068FEF91E00E94951887E496E08F
:103500000E947E198111CACF68EB7BE080E090E0D9
:10351000DF91CF910C94FA0AFF920F931F93CF93F0
:10352000DF938C01EB01F8800E947229F81621F0DC
:103530006F2DC8010E947A29CE01DF91CF911F9192
:103540000F91FF900895FF920F931F93CF93DF93F6
:10355000EC018B01FB01F0800E947229F81621F02A
:103560006F2DCE010E947A29F801F1802196CE01BB
:103570000E947229F81621F06F2DCE010E947A293F
:10358000C801DF91CF911F910F91FF900895CF93C4
:10359000DF93EB010E9472298883CE01DF91CF91E6
:1035A00008950F931F93CF93DF938C01EB010E943B
:1035B00072298883C80101960E9472298983CE01ED
:1035C000DF91CF911F910F9108951F920F920FB627
:1035D0000F9211242F933F934F935F936F937F9399
:1035E0008F939F93AF93BF93EF93FF938AE195E0FF
:1035F0000E949109FF91EF91BF91AF919F918F919F
:103600007F916F915F914F913F912F910F900FBEDE
:103610000F901F9018951F920F920FB60F921124C2
:103620002F938F939F93EF93FF93E0912A05F0914F
:103630002B058081E0913005F091310582FD1BC0A2
:103640009081809133058F5F8F73209134058217AD
:1036500041F0E0913305F0E0E65EFA4F958F8093FC
:103660003305FF91EF919F918F912F910F900FBE96
:103670000F901F9018958081F4CF1F920F920FB674
:103680000F9211242F933F938F939F93AF93BF93E8
:103690008091440490914504A0914604B091470460
:1036A0003091430426E0230F2D3758F50296A11DD3
:1036B000B11D209343048093440490934504A09348
:1036C0004604B09347048091480490914904A09126
:1036D0004A04B0914B040196A11DB11D809348048A
:1036E00090934904A0934A04B0934B04BF91AF91C7
:1036F0009F918F913F912F910F900FBE0F901F9030
:10370000189529E8230F0396A11DB11DD2CF1F9252
:103710000F920FB60F9211242F933F934F935F9305
:103720006F937F938F939F93AF93BF93EF93FF9389
:103730008091B900887F803609F44AC0F0F588325C
:1037400009F4A7C018F5803109F49BC0B8F48823A8
:1037500009F4F9C0883009F494C0FF91EF91BF914A
:10376000AF919F918F917F916F915F914F913F9119
:103770002F910F900FBE0F901F901895883109F46C
:1037800088C0803251F780931C0414C0803409F43F
:103790009DC040F48033B9F38833F9F680931C045C
:1037A00085ECB0C0803509F485C0883509F496C031
:1037B000883499F60E943119D0CF883909F48CC029
:1037C00038F5883729F050F4883611F0803729F61B
:1037D00083E080931D0410921B0457C0883809F4BD
:1037E0007BC0803919F0803809F0B7CF80911B0475
:1037F000803208F071C0E0911B0481E08E0F80934D
:103800001B048091BB00F0E0E550FC4F80833DC07D
:10381000803B39F0E0F4803A09F479C0883A09F045
:103820009CCF84E080931D041092F8031092F7035C
:10383000E091F503F091F60309958091F70381116A
:103840000FC081E08093F7031092D50309C0803C3C
:1038500009F4A6CF883C09F4A3CF883B09F07DCFBB
:10386000E091F80381E08E0F8093F803F0E0EB52D3
:10387000FC4F80818093BB009091F8038091F70307
:1038800029C0809142048093BB0085EC8093BC00EA
:1038900064CF9091410480914004981758F5E091CD
:1038A000410481E08E0F80934104F0E0E05EFB4F25
:1038B0008081E9CFE091410481E08E0F8093410443
:1038C0008091BB00F0E0E05EFB4F8083909141046B
:1038D000809140049817C8F285E8D8CFE091410460
:1038E00081E08E0F809341048091BB00F0E0E05EA8
:1038F000FB4F808380911F0481115CCF81E0809316
:103900001E0484EA8093BC0010921D0426CF85EC2F
:103910008093BC0010921D0480911B04803230F40F
:10392000E0911B04F0E0E550FC4F108260911B0415
:1039300070E0E091F903F091FA038BEF93E00995C1
:1039400010921B040ACF10921C0434CFCF93109214
:103950001D0510921C0588EE93E0A0E0B0E0809376
:103960001E0590931F05A0932005B093210521EA21
:1039700031E030931B0520931A0525EC30E030939D
:1039800027052093260524EC30E030932905209369
:10399000280520EC30E030932B0520932A0521ECFC
:1039A00030E030932D0520932C0522EC30E030934D
:1039B0002F0520932E0526EC30E03093310520931F
:1039C000300510923305109234051092350510928F
:1039D00036051092BA051092B9058093BB059093F5
:1039E000BC05A093BD05B093BE0583EB91E0909319
:1039F000B8058093B70510924606109245068BE9EC
:103A000098E09093C3068093C2061092C406109269
:103A1000C50610925F0685EC91E090934406809372
:103A20004306109248061092470610925C061092C8
:103A300053061092540610925506109256068FEFB8
:103A400080935D0680936106E5E6F6E08BE796E0FD
:103A5000CFEFC1938E179F07E1F78EEA9CE090931A
:103A60004C0680934B0683EA9DE090934E0680932C
:103A70004D0682E292E19093500680934F0683E6D2
:103A800093E1909352068093510630E020E040E0AD
:103A900069E087E496E00E94AE0C109293061092C3
:103AA000920685EA98E090937C0680937B0683ECEF
:103AB00095E09093800680937F0681E08093810655
:103AC0001092820610929F061092BF068093C00645
:103AD0008093C1068DEC91E090937E0680937D06E5
:103AE00087E496E00E94190E10928E0610929006BE
:103AF000C0938F06C0939106E0917D06F0917E06FB
:103B00000280F381E02D87E496E0099588E099E052
:103B100090939506809394061092A206C093700627
:103B2000C0937106C0937206CF910895CF93DF932F
:103B3000CDB7DEB72A970FB6F894DEBF0FBECDBF64
:103B4000789484B5826084BD84B5816084BD85B578
:103B5000826085BD85B5816085BD80916E00816084
:103B600080936E001092810080918100826080932A
:103B7000810080918100816080938100809180002C
:103B80008160809380008091B10084608093B10057
:103B90008091B00081608093B00080917A00846051
:103BA00080937A0080917A00826080937A0080917D
:103BB0007A008E7F80937A0080917A00806880936B
:103BC0007A001092C100E0912A05F0912B0582E065
:103BD0008083E0912605F09127051082E091280569
:103BE000F091290587E6808310923205E0912E0539
:103BF000F0912F0586E08083E0912C05F0912D0552
:103C0000808180618083E0912C05F0912D05808179
:103C100088608083E0912C05F0912D05808180687B
:103C20008083E0912C05F0912D0580818F7D80832C
:103C3000E0914B06F0914C0630E020E040E06AE075
:103C400087E496E0099587E496E00E94A81987E446
:103C500096E00E947E198111FACF60E087E496E039
:103C60000E94B31160E087E496E00E942E0C61E0B0
:103C700089E00E94920A61E08AE00E94920A61E073
:103C800085E00E94920A61E086E00E94920A62E06A
:103C90008BE00E94920A62E08CE00E94920A62E04D
:103CA00087E00E94920A62E088E00E94920A61E046
:103CB0008DE00E94920A64E170E080E090E00E9452
:103CC000FA0A62E075E084E190E00E94D11A64E6AD
:103CD00070E080E090E00E94FA0A809102059091E5
:103CE0000305019709F046C066E171E090E080E0CD
:103CF0000E94D11A64E171E082E090E00E94D11A42
:103D000062E171E084E090E00E94D11A60E171E02C
:103D100086E090E00E94D11A60E075E088E090E0D3
:103D20000E94D11A6EEF74E08AE090E00E94D11AEE
:103D30006FE071E08CE090E00E94C71A6EE071E0E5
:103D40008EE090E00E94C71A6DE071E080E190E0A3
:103D50000E94C71A6CE071E082E190E00E94C71AED
:103D600064E170E080E090E00E94FA0A109203059E
:103D70001092020564E170E080E090E00E94FA0A8F
:103D8000EE24E394F12CF5E0CF2ED12CA9E02A2EDD
:103D9000312C8FE00E94C30A9093CF048093CE040D
:103DA0004C01990FAA08BB08C501B4010E9455280F
:103DB00023E333E343E55BE30E94B4286093F2041A
:103DC0007093F3048093F4049093F50440901401ED
:103DD000509015019201550C440B550B2F833887D9
:103DE00049875A874090160150901701052C000C06
:103DF0006608770884149504A604B70414F45301E4
:103E000042018F819885A985BA8588169906AA06E8
:103E1000BB0614F4D501C4019C01AD012419350978
:103E200046095709A3ECB1E00E9488292F81388503
:103E300049855A8524193509460957092F5F3F4F8F
:103E40004F4F5F4F0E94132B809100059091010509
:103E5000281B390B3093FD042093FC048EE00E9454
:103E6000C30A9093D8048093D7044C01990FAA08F1
:103E7000BB08C501B4010E94552823E333E343E5A1
:103E80005BE30E94B4286093EE047093EF04809388
:103E9000F0049093F1044090120150901301C2017C
:103EA000550CAA0BBB0B8F839887A987BA874090C4
:103EB000100150901101052C000C6608770884143D
:103EC0009504A604B70414F4530142018F81988528
:103ED000A985BA8588169906AA06BB0614F4D501E9
:103EE000C4019C01AD012419350946095709A5EB08
:103EF000B0E00E9488292F81388549855A85241988
:103F00003509460957092F5F3F4F4F4F5F4F0E94BA
:103F1000132B8091FE049091FF04281B390B3093E2
:103F2000FB042093FA0411E08AE195E00E947109F4
:103F30002091C5041816190654F521112BC08AE1E9
:103F400095E00E944F0990914D049923D9F09091EA
:103F50004C04E92FF0E0EB57FB4F8D3559F080838F
:103F60009F5F903220F03FE130934C04DDCF90937F
:103F70004C04DACF108210924D0410924C0410932E
:103F8000C504D2CF8B3581F610934D04CDCF2223BB
:103F900009F4B4C065E874E085EA94E00E94332D2A
:103FA00080917D04811109C062E972E084E195E0AD
:103FB0000E94E81881E080937D048091750481114E
:103FC00009C062E972E08FE694E00E94E81881E09F
:103FD0008093750460E172E085EA94E00E941A28FB
:103FE000BC018FE494E00E94332D6FE474E0CE01B5
:103FF00001960E94E818809114059091150500978C
:1040000009F457C069817A816115710509F44FC0BF
:1040100040911605509117052D813E814217530797
:1040200008F445C00E94332D8D819E81909319051F
:10403000809318051E821D8289819A81009711F054
:104040000E94D42B82E192E00E940517882309F494
:104050004DC20E94FB1584E080930B0160E172E089
:1040600090E080E00E941A280E94FC278093ED04D3
:104070008230B1F1833071F08130F1F560E172E0AE
:1040800090E080E00E941A280E94FC279093F90497
:104090008093F80460E172E090E080E00E941A28CA
:1040A0000E94FC279093F7048093F60425C00E9499
:1040B000D42B89819A8190931505809314058B8167
:1040C0009C8190931705809316058D819E81909316
:1040D0001905809318051A8219821C821B82AACFA7
:1040E00060E172E090E080E00E941A280E94FC27C4
:1040F0009093F9048093F8041092C50480E10E9423
:10410000C30A8C0180910805811116C0083E53E056
:10411000150794F481E0809308050E942D0B6093AD
:10412000040570930505809306059093070560E0EC
:1041300087E496E00E942E0C80910805813009F0FA
:1041400042C0083E93E019070CF0EAC28093C8040D
:10415000809313050E942D0B6093090570930A0547
:1041600080930B0590930C058091C804813049F42D
:1041700098012F5131092D31310508F0E0C28093AB
:10418000CA048091C7048130F1F410921305109293
:10419000C8041092C7041092C9041092CA04109265
:1041A000CB041092CC041092CD041092C6048091DE
:1041B0000D0590910E050597D1F485E00E94CD156F
:1041C00086E00E94CD1580911305813081F4E09145
:1041D0000D05F0910E058091CD04E530F10509F053
:1041E000F5C2813009F0D5C283E00E94CD158091DF
:1041F0000B01843009F0A4C300910C0110E0209160
:104200000E0130E04091ED0450E06091F6047091B1
:10421000F7048091F8049091F9040E9409168091A6
:104220000B01853019F481E080930B010E942D0B66
:1042300000910F0510911005209111053091120584
:10424000601B710B820B930B6838734181059105DC
:1042500008F475C00E942D0BAB01BC012AE08AE175
:1042600095E00E942D178AEB90E00E94000A409191
:104270000B0150E070E060E02AE08AE195E00E94E6
:104280002D1788EB90E00E94000A6091FC04709169
:10429000FD048AE195E00E94791786EB90E00E9488
:1042A000000A6091FA047091FB048AE195E00E9493
:1042B000791784EB90E00E94000A6091F8047091F5
:1042C000F9048AE195E00E94791782EB90E00E9460
:1042D000000A6091F6047091F7048AE195E00E946B
:1042E000791780EB90E00E94000A6091F2047091CF
:1042F000F3048091F4049091F50442E00E94B31716
:104300008EEA90E00E94000A6091EE047091EF0442
:104310008091F0049091F10442E00E94B31760E9AB
:1043200072E08AE195E00E941E170E942D0B6093B7
:104330000F0570931005809311059093120500915D
:104340000D0510910E050E3011053CF505301105D7
:1043500021F10E942D0B8090090590900A05A090F4
:104360000B05B0900C05681979098A099B0960371B
:1043700077418105910588F0055011090430110538
:1043800060F0D0920E05C0920D05109209051092B2
:104390000A0510920B0510920C05809108058130DA
:1043A00009F587E496E00E94A81969E0A62E12E3B9
:1043B00000E470E5B72E80910D0590910E058530D3
:1043C00091050CF076C5880F991FFC01ED56FE4F44
:1043D000808191810E949F1887E496E00E947E1957
:1043E0008111E9CF0E942D0B009104051091050564
:1043F0002091060530910705601B710B820B930B12
:10440000603E73498440910588F0109208050E942F
:104410002D0B60930405709305058093060590931A
:10442000070561E087E496E00E942E0C809102056A
:1044300090910305019709F04CC066E171E090E0AE
:1044400080E00E94A31A64E171E082E090E00E94A3
:10445000A31A62E171E084E090E00E94A31A60E197
:1044600071E086E090E00E94A31A60E075E088E0C9
:1044700090E00E94A31A6EEF74E08AE090E00E9440
:10448000A31A6FE071E08CE090E00E948C1A6EE05D
:1044900071E08EE090E00E948C1A6DE071E080E1A6
:1044A00090E00E948C1A6CE071E082E190E00E9442
:1044B0008C1A62E075E084E190E00E94A31A64E146
:1044C00070E080E090E00E94FA0A109203051092DA
:1044D000020580E090E0892B09F45BCC0E947D0905
:1044E000882309F456CC0E94000053CC87E192E067
:1044F0000E9405178823E1F083E080930B0160E1BF
:1045000072E090E080E00E941A280E94FC279093BD
:1045100001018093000160E172E090E080E00E9480
:104520001A280E94FC279093030180930201E4CD96
:104530008DE192E00E9405178823F9F081E08093D5
:104540004E0486E080930B0160E172E090E080E031
:104550000E941A280E94FC279093EC048093EB049D
:1045600060E172E090E080E00E941A280E94FC273F
:104570009093E8048093E704BFCD88E192E00E9425
:104580000517882321F083E080930B01B5CD82E2EB
:1045900092E00E940517882331F08BE080930B0195
:1045A0000E94FB15A9CD87E292E00E94051788239F
:1045B00011F08FE0F3CF8EE292E00E94051788237E
:1045C00021F040E140930B01EBCF85E392E00E94A4
:1045D0000517882311F089E0D7CF8CE392E00E9481
:1045E0000517882311F088E0CFCF83E492E00E9482
:1045F0000517882311F08DE0C7CF89E492E00E946F
:104600000517882311F08EE0BFCF8FE492E00E945F
:104610000517882379F060E172E090E080E00E9465
:104620001A280E94FC2780930F01F0920305E09264
:10463000020562CD85E592E00E940517882359F0B6
:1046400060E172E090E080E00E941A280E94FC275E
:1046500080930D01EACF8BE592E00E940517882335
:1046600059F060E172E090E080E00E941A280E9418
:10467000FC2780930E01D9CF83E692E00E940517B4
:10468000882359F060E172E090E080E00E941A28EF
:104690000E94FC2780930C01C8CF8BE692E00E9419
:1046A0000517882339F060E172E090E080E00E9415
:1046B0001A2822CD80E792E00E940517882369F02E
:1046C00060E172E090E080E00E941A280E94FC27DE
:1046D0009093010580930005A8CF89E792E00E949E
:1046E0000517882369F060E172E090E080E00E94A5
:1046F0001A280E94FC279093FF048093FE0495CF14
:1047000081E080930B0162E872E08AE195E00E940B
:104710001E1760E972E08AE195E00E941E17ECCC5A
:10472000083EA3E01A0709F41FCD8091C804813028
:1047300009F01ACD8093C7041092C80415CD9801D2
:104740002B5F31092534310518F48093CC0419CD41
:104750009801255F31402336310518F48093CB044E
:1047600010CD0A3011051CF48093CD040ACD0F5EE4
:1047700012400F34110508F004CD9091C604913019
:1047800019F41092C904FDCC8093C9048093C60427
:10479000F8CC8091CC04813011F484E026CD809156
:1047A000CB04813009F421CD8091CA04813011F409
:1047B00082E01BCD8091C904813009F018CD0E94A0
:1047C000FB1510920E0510920D0511CD813031F5BB
:1047D000E530F10574F43197F0930E05E0930D0583
:1047E000F7FF05CD24E030E030930E0520930D0552
:1047F000FECCCF010997069708F0F9CC3197E83045
:10480000F10529F0F0930E05E0930D05F0CC4EE094
:1048100050E050930E0540930D05E9CC8091CC04F7
:104820008130B1F4E530F1052CF43196E530F10535
:1048300041F2E8CFCF010997069708F0D8CC31961E
:10484000EF30F105F9F630920E0520920D05CFCC30
:104850008091CA04813021F4CF010997069710F2A4
:104860008091C904813009F0C2CCEF30F10508F025
:10487000BECCE35CFB4D0C94322B4F244C245424CF
:1048800056242324F720F720F720F72058245A2411
:104890005C2477248C24972483E080930B01D092AE
:1048A0000E05C0920D05A3CC88E0F7CF89E0F5CFC7
:1048B0008DE0F3CF8EE0F1CF8091FC049091FD0468
:1048C000853591054CF00E94461A8BE090E090935C
:1048D0000E0580930D058BCC909301058093000508
:1048E000F0920305E09202050E94001AD8CF809151
:1048F000FA049091FB04853591054CF00E94461A0C
:10490000ACE0B0E0B0930E05A0930D0570CC909391
:10491000FF048093FE04E4CFF0920305E0920205C9
:1049200010920105109200050E94BA19B8CFF092BA
:104930000305E09202051092FF041092FE04F4CFEA
:104940008330B9F4609102017091030110E000E03E
:1049500030E020E041E050E08091000190910101C1
:104960000E94091680910B01853009F05FCC82E02E
:104970005BCC8D3009F0B7C08090D2049090D30406
:10498000A090D404B090D5048091D604811155C074
:1049900081E00E94CD1581149104A104B10499F421
:1049A0000E942D0B6093D2047093D3048093D4049F
:1049B0009093D5048091FC049091FD049093D104D0
:1049C0008093D00433CC0E942D0B681979098A0991
:1049D0009B0960327E448105910508F427CC209123
:1049E000FC043091FD048091D0049091D104A90180
:1049F000481B590BCA0157FF03C091958195910936
:104A000003970CF061C085E00E94CD151092D2048E
:104A10001092D3041092D4041092D5048091CE0445
:104A20009091CF04909315018093140181E08093BD
:104A3000D60482E080930401F9CB82E00E94CD1578
:104A400081149104A104B10409F4AACF0E942D0B92
:104A5000681979098A099B0960327E4481059105AC
:104A600008F4E4CB2091FC043091FD048091D00443
:104A70009091D104D901A81BB90BCD01B7FF03C098
:104A80009195819591090397FCF485E00E94CD15DD
:104A90001092D2041092D3041092D4041092D50430
:104AA0008091CE049091CF049093170180931601CA
:104AB0001092D60481E080930B0180930401F09260
:104AC0000305E0920205B2CB3093D1042093D004C9
:104AD0000E942D0B6093D2047093D3048093D4046E
:104AE0009093D504A3CB8E3009F0B3C08090DB0443
:104AF0009090DC04A090DD04B090DE048091DF048F
:104B0000811155C083E00E94CD1581149104A10448
:104B1000B10499F40E942D0B6093DB047093DC04C4
:104B20008093DD049093DE048091FA049091FB045D
:104B30009093DA048093D90479CB0E942D0B6819E5
:104B400079098A099B0960327E448105910508F440
:104B50006DCB2091FA043091FB048091D90490919F
:104B6000DA04A901481B590BCA0157FF03C09195EC
:104B70008195910903970CF05DC086E00E94CD15E8
:104B80001092DB041092DC041092DD041092DE041B
:104B90008091D7049091D8049093130180931201CF
:104BA00081E08093DF0482E0809305013FCB84E0C5
:104BB0000E94CD1581149104A104B10409F4AACF77
:104BC0000E942D0B681979098A099B0960327E447D
:104BD0008105910508F42ACB2091FA043091FB0459
:104BE0008091D9049091DA04D901A81BB90BCD01A9
:104BF000B7FF03C09195819591090397DCF486E096
:104C00000E94CD151092DB041092DC041092DD049A
:104C10001092DE048091D7049091D80490931101F2
:104C2000809310011092DF0481E080930B01809348
:104C3000050145CF3093DA042093D9040E942D0B4F
:104C40006093DB047093DC048093DD049093DE04B6
:104C5000EDCA883009F03FC08091E104813019F538
:104C600010E000E030E020E042E050E070E060E082
:104C700090E080E00E94091680910B01853009F0D8
:104C8000D5CA8091E0048130E1F48093E104109270
:104C9000E00488E080930B0168EE73E080E090E030
:104CA0000E94FA0AC3CA81E08093E00410E000E0A9
:104CB00030E020E042E050E070E060E082EC91E023
:104CC000D9CF8091E104813009F0B0CA80930B0103
:104CD0001092E104ABCA8930A9F58091E3048130D8
:104CE000D9F410E000E030E020E043E050E070E074
:104CF00060E090E080E00E94091680910B01853011
:104D000009F094CA8091E204813091F48093E30425
:104D10001092E20489E0BECF81E08093E20410E0CB
:104D200000E030E020E043E050E064EB70E0E1CFF1
:104D30008091E304813009F079CA80930B011092CD
:104D4000E30474CA863009F071CA209109013091D8
:104D50000A018091EB049091EC04289F4001299F67
:104D6000900C389F900C11249092EA048092E904F0
:104D700020910701309108018091E7049091E804A7
:104D8000289F5001299FB00C389FB00C1124B0927D
:104D9000E604A092E504809106018130F9F4809147
:104DA000E40481110AC08091FC049091FD04880DF7
:104DB000991D9093F9048093F80481E08093E404B2
:104DC00010E000E030E020E042E050E070E060E021
:104DD0008091F8049091F9040E94091680910601CF
:104DE0008230F9F48091E40481110AC08091FA04C0
:104DF0009091FB048A0D9B1D9093F7048093F60419
:104E000081E08093E4046091F6047091F70410E06F
:104E100000E030E020E043E050E090E080E00E94DD
:104E20000916809106018330F9F48091E404811120
:104E30000AC08091FC049091FD048819990990930F
:104E4000F9048093F80481E08093E40410E000E02A
:104E500030E020E042E050E070E060E08091F80453
:104E60009091F9040E94091680910601843009F09E
:104E7000DDC98091E40481110AC08091FA04909107
:104E8000FB048A199B099093F7048093F60481E050
:104E90008093E4046091F6047091F70410E000E060
:104EA00030E020E043E050E090E080E00E9409160E
:104EB000BDC99C01295031092630310530F4220F3B
:104EC000331FF901E957FE4F83CA059709F084CAD9
:104ED00086EF9BE00E94381083E992E00E94AB11BC
:104EE00090E095958795919581959109805C9F4F6C
:104EF0008093C406A092C50683E992E00E949518AB
:104F00008CEF95E00E9438101092C40630E2309386
:104F1000C50688E992E00E9495181092C406109385
:104F2000C5068DE992E00E94951886ED91E00E94F9
:104F300038101092C4060093C50682EA92E00E94DF
:104F4000951880ED90E00E943810B092C40640E2BF
:104F50004093C5066091FC047091FD0483E496E0E3
:104F60000E947917B092C4061093C5066091FA04A6
:104F70007091FB0483E496E00E94791786ED91E03E
:104F80000E9438101093C4060093C506E0910B01EF
:104F9000EF3008F021CAF0E0E053F84D0C94322BCA
:104FA000DF27E427E727EA27ED27EC21F027EC218C
:104FB000F327F627EC21EC21EC21F927F9278AEADF
:104FC00092E00E94951808CA80EB92E0FACF85EB38
:104FD00092E0F7CF8CEB92E0F4CF84EC92E0F1CF4B
:104FE0008DEC92E0EECF86ED92E0EBCF81EE92E099
:104FF000E8CF8CEE92E0E5CFFC0188279927E89472
:1050000021912032E9F3293010F02E30C8F32B32F1
:1050100041F02D3239F4689404C00E944628820F72
:10502000911D219120532A30C0F31EF49095819553
:105030009F4F089546EC56E00E941F280895FA01FC
:10504000A191B081009719F41097E1F0CD01DC0136
:10505000CD010D90002011F4C00113C0FB0121917E
:10506000222319F02015D9F7F3CFFB012191201548
:1050700019F41E92119606C02223C1F70D9000204C
:10508000A1F7D001FA01A193B08308957AE0979F28
:10509000902D879F802D910D112408950E949028B6
:1050A00008F481E00895E89409C097FB3EF49095D8
:1050B0008095709561957F4F8F4F9F4F9923A9F0F1
:1050C000F92F96E9BB279395F69587957795679580
:1050D000B795F111F8CFFAF4BB0F11F460FF1BC0C4
:1050E0006F5F7F4F8F4F9F4F16C0882311F096E957
:1050F00011C0772321F09EE8872F762F05C0662305
:1051000071F096E8862F70E060E02AF09A95660FBD
:10511000771F881FDAF7880F9695879597F9089576
:10512000990F0008550FAA0BE0E8FEEF16161706B8
:10513000E807F907C0F012161306E407F50798F020
:10514000621B730B840B950B39F40A2661F0232B39
:10515000242B252B21F408950A2609F4A140A695B5
:105160008FEF811D811D08950E94C7280C94382956
:105170000E942A2938F00E94312920F0952311F04D
:105180000C9421290C94272911240C946C290E9439
:10519000492970F3959FC1F3950F50E0551F629F09
:1051A000F001729FBB27F00DB11D639FAA27F00D80
:1051B000B11DAA1F649F6627B00DA11D661F829FA7
:1051C0002227B00DA11D621F739FB00DA11D621F8C
:1051D000839FA00D611D221F749F3327A00D611DA9
:1051E000231F849F600D211D822F762F6A2F11248B
:1051F0009F5750409AF0F1F088234AF0EE0FFF1FBE
:10520000BB1F661F771F881F91505040A9F79E3F14
:10521000510580F00C9421290C946C295F3FE4F334
:10522000983ED4F3869577956795B795F795E7956A
:105230009F5FC1F7FE2B880F911D9695879597F973
:10524000089597F99F6780E870E060E008959FEF08
:1052500080EC089500240A9416161706180609060D
:10526000089500240A9412161306140605060895DC
:10527000092E0394000C11F4882352F0BB0F40F464
:10528000BF2B11F460FF04C06F5F7F4F8F4F9F4FA4
:10529000089557FD9058440F551F59F05F3F71F026
:1052A0004795880F97FB991F61F09F3F79F087958D
:1052B0000895121613061406551FF2CF4695F1DF16
:1052C00008C0161617061806991FF1CF86957105A6
:1052D000610508940895E894BB2766277727CB01DA
:1052E00097F90895F999FECF92BD81BDF89A992753
:1052F00080B50895262FF999FECF1FBA92BD81BDC2
:1053000020BD0FB6F894FA9AF99A0FBE0196089547
:105310000E94CA29A59F900DB49F900DA49F800D57
:10532000911D112408952F923F924F925F926F9298
:105330007F928F929F92AF92BF92CF92DF92EF9225
:10534000FF920F931F93CF93DF93CDB7DEB7CA1BA6
:10535000DB0B0FB6F894DEBF0FBECDBF09942A88D1
:10536000398848885F846E847D848C849B84AA8479
:10537000B984C884DF80EE80FD800C811B81AA8106
:10538000B981CE0FD11D0FB6F894DEBF0FBECDBFD1
:10539000ED010895A29FB001B39FC001A39F700DBE
:1053A000811D1124911DB29F700D811D1124911D2D
:1053B00008955058BB27AA270E94F1290C94382938
:1053C0000E942A2938F00E94312920F039F49F3FA9
:1053D00019F426F40C9427290EF4E095E7FB0C94BD
:1053E0002129E92F0E94492958F3BA176207730748
:1053F0008407950720F079F4A6F50C946B290EF438
:10540000E0950B2EBA2FA02D0B01B90190010C01D4
:10541000CA01A0011124FF27591B99F0593F50F4EC
:10542000503E68F11A16F040A22F232F342F442744
:10543000585FF3CF469537952795A795F04053953C
:10544000C9F77EF41F16BA0B620B730B840BBAF00C
:105450009150A1F0FF0FBB1F661F771F881FC2F777
:105460000EC0BA0F621F731F841F48F4879577958B
:105470006795B795F7959E3F08F0B0CF9395880F45
:1054800008F09927EE0F9795879508950E945A2A5C
:105490000C9438290E94312958F00E942A2940F0A2
:1054A00029F45F3F29F00C94212951110C946C29A7
:1054B0000C9427290E94492968F39923B1F35523B5
:1054C00091F3951B550BBB27AA2762177307840717
:1054D00038F09F5F5F4F220F331F441FAA1FA9F3AD
:1054E00035D00E2E3AF0E0E832D091505040E6959B
:1054F000001CCAF72BD0FE2F29D0660F771F881FFC
:10550000BB1F261737074807AB07B0E809F0BB0BEE
:10551000802DBF01FF2793585F4F3AF09E3F510502
:1055200078F00C9421290C946C295F3FE4F3983EA9
:10553000D4F3869577956795B795F7959F5FC9F7EB
:10554000880F911D9695879597F90895E1E0660F6C
:10555000771F881FBB1F621773078407BA0720F0E5
:10556000621B730B840BBA0BEE1F88F7E09508954E
:105570000E94512988F09F5798F0B92F9927B75169
:10558000B0F0E1F0660F771F881F991F1AF0BA95E7
:10559000C9F714C0B13091F00E946B29B1E00895B1
:1055A0000C946B29672F782F8827B85F39F0B93FA3
:1055B000CCF3869577956795B395D9F73EF490959A
:1055C0008095709561957F4F8F4F9F4F08950E94F2
:1055D000902808F48FEF08950E949028880B990B6B
:1055E0000895A1E21A2EAA1BBB1BFD010DC0AA1F24
:1055F000BB1FEE1FFF1FA217B307E407F50720F03C
:10560000A21BB30BE40BF50B661F771F881F991FB6
:105610001A9469F760957095809590959B01AC01FF
:10562000BD01CF010895052E97FB1EF400940E9442
:105630002A2B57FD07D00E94F12A07FC03D04EF415
:105640000C942A2B50954095309521953F4F4F4F04
:105650005F4F089590958095709561957F4F8F4F1E
:105660009F4F0895EE0FFF1F0590F491E02D0994D0
:105670000F931F93CF93DF938230910510F482E054
:1056800090E0E091CA06F091CB0630E020E0B0E077
:10569000A0E0309799F42115310509F44AC0281B80
:1056A000390B24303105D8F58A819B81611571054C
:1056B00089F1FB0193838283FE0111C040815181F6
:1056C0000281138148175907E0F04817590799F4E8
:1056D000109761F012960C93129713961C933296C2
:1056E000CF01DF91CF911F910F9108950093CA06CA
:1056F0001093CB06F4CF2115310551F04217530713
:1057000038F0A901DB019A01BD01DF01F801C1CF29
:10571000EF01F9CF9093CB068093CA06CDCFFE015F
:10572000E20FF31F8193919322503109398328832B
:10573000D7CF2091C8063091C906232B41F4209180
:105740001A0130911B013093C9062093C80620919D
:105750001801309119012115310541F42DB73EB7DB
:1057600040911C0150911D01241B350BE091C8068E
:10577000F091C906E217F307A0F42E1B3F0B281780
:10578000390778F0AC014E5F5F4F2417350748F0BA
:105790004E0F5F1F5093C9064093C80681939193A3
:1057A0009FCFF0E0E0E09CCFCF93DF930097E9F04C
:1057B000FC01329713821282A091CA06B091CB06E7
:1057C000ED0130E020E01097A1F420813181820FBB
:1057D000931F2091C8063091C9062817390709F090
:1057E00061C0F093C906E093C806DF91CF91089598
:1057F000EA01CE17DF07E8F54A815B819E0141157A
:105800005105B1F7E901FB83EA8349915991C40F2E
:10581000D51FEC17FD0761F4808191810296840FFA
:10582000951FE90199838883828193819B838A8371
:10583000F0E0E0E012968D919C9113970097B9F5F6
:105840002D913C911197CD010296820F931F2091CB
:10585000C8063091C9062817390739F6309751F52F
:105860001092CB061092CA06B093C906A093C80640
:10587000BCCFD383C28340815181840F951FC81749
:10588000D90761F44E5F5F4F88819981480F591F96
:10589000518340838A819B819383828321153105C3
:1058A00009F0B0CFF093CB06E093CA069ECFFD017E
:1058B000DC01C0CF13821282D7CFB0E0A0E0E3E6D4
:1058C000FCE20C9495298C01009751F4CB010E94C5
:1058D000382B8C01C801CDB7DEB7E0E10C94B129BB
:1058E000FC01E60FF71F9C0122503109E217F30774
:1058F00008F49DC0D901CD91DC911197C617D70747
:1059000098F0C530D10530F3CE010497861797077C
:1059100008F3C61BD70B2297C193D1936D937C9349
:10592000CF010E94D42BD6CF5B01AC1ABD0A4C012B
:105930008C0E9D1EA091CA06B091CB06512C412C15
:10594000F12CE12C109731F58091C8069091C90691
:105950008815990509F05CC04616570608F058C02E
:105960008091180190911901009741F48DB79EB76D
:1059700040911C0150911D01841B950BE817F907FC
:1059800008F055C0F093C906E093C806F901718389
:105990006083A0CF8D919C91119712966C90129775
:1059A00013967C901397A815B90559F56C0142E040
:1059B000C40ED11CCA14DB0420F1AC014A195B09E6
:1059C000DA011296159780F06282738251834083C8
:1059D000D9016D937C93E114F10471F0D701139612
:1059E000FC93EE93129776CF22968C0F9D1FF901B0
:1059F00091838083F301EFCFF093CB06E093CA0647
:105A000069CF4816590608F42C017D01D3019ACFBD
:105A1000CB010E94382B7C01009749F0AE01B80100
:105A20000E941A2DC8010E94D42B870153CF10E089
:105A300000E050CFFB01DC0102C001900D9241500B
:105A40005040D8F70895DC0101C06D93415050409B
:105A5000E0F70895FB01DC018D91019080190110A0
:105A6000D9F3990B0895FB01DC0101900D92002000
:085A7000E1F70895F894FFCF5F
:105A780096002D0001010101000100010501050149
:105A88000500FE03FE0305000000CC068000F802B6
:105A9800DF011815A015C019FF1815A115C819FFA1
:105AA8001815AE19FF1815AF19FF1815AE15D5162C
:105AB8008015A8163F15D316001540158D16141518
:105AC80020160015A115C815DA1612158116CF155E
:105AD800D916F115DB1640152E15A415A619FF00C9
:105AE80001140A6464323200127A00000428961005
:105AF8000800008000400002030F031C032A03383B
:105B08000345039302180252035A03DF0100000001
:105B180000B309130940091B0A71094F09630900F9
:105B2800000000F80BCB0B7C15A10BC40BB10BA22A
:105B38000B000000001114E9137C151209190E83DB
:105B48000E0D0E6E616E00696E66006F766600530C
:105B5800455454494E4753004F4646534554205ADE
:105B680045524F004F464653455420534554004F25
:105B7800464653455420544F4F204C415247450008
:105B88002C004D4F5645004E5041524B0053434157
:105B98004E0053544F500053544F50415A005354E1
:105BA8004F50454C0054455354454C0054455354AC
:105BB800415A0043414C415A0043414C454C004135
:105BC8005A544F4C00454C544F4C00415A444241A2
:105BD8004E4400454C4442414E44004F50555400F9
:105BE800415A4F464653455400454C4F4646534547
:105BF8005400436F6D6D616E64204572726F720060
:105C08000D0A00484F4D4500415A203A00454C20A6
:105C18003A005354415445203A004552524F5200DD
:105C280049444C45005041524B4544005041524B69
:105C3800494E4700545241434B494E470053434154
:105C48004E4E494E470054455354494E4720415AF9
:105C58000054455354494E4720454C0043414C4954
:105C680042524154494E47004D41494E204D454E00
:105C7800550043414C49425241544520415A004342
:105C8800414C49425241544520454C00534554200B
:105C9800415A204F46465345540053455420454CDD
:105CA800204F4646534554005A45524F20415A20EA
:105CB8004F465354005A45524F20454C204F4653A7
:105CC80054005445535420415A00544553542045D8
:025CD8004C007E
:00000001FF
